:100A5A0000F600F500F300F600EE00DE00FE00FDF1
:100A6A0000FB00C000F900A400B0009900920082C7
:060A7A0000F8008000906E
:1008F60078087C007D007BFF7A0A795A7E007F1299
:100906001208D07580FF75A0FF7590C075B0C0E461
:10091600F51AC3E51A94037480948050F2E4F51B2B
:10092600AF1B7E00C3EF9403748094805060E51A79
:1009360064027022E51A75F006A42408F8E51B2562
:10094600E028F808E6F5A07580F6EF6402702E7DC3
:1009560005FC7F018022E51A75F006A42408F8E557
:100966001B25E028F808E6F58075A0FEE51B640265
:10097600700B7D05FC7F01FE120998800D7F027EBB
:1009860000120A287590C075B0C0051B8092051A22
:0209960080805F
:100A2800758901E4FDFCC3ED9FEC9E5024E4FBFABC
:100A3800758CFC758A66D28C308DFDC28CC28D0B8C
:100A4800BB00010ABA03E9BBE8E60DBD00010C8052
:010A5800D5C8
:010A5900227A
:080998008E1C8F1D8C1E8D1FAB
:1009A00078247C007D007BFF7A0A796C7E007F14BE
:1009B0001208D0851D82851C83C3E58364809480E2
:1009C0004065E582B51D0DE583B51C08851E2285B1
:1009D0001F23800675220075230985222085232187
:1009E000C3E520648094804034AF82EF25E0242466
:1009F000F808E6F5B0E52125E02424F808E6F590AE
:100A00007F017E00120A28E58245837006E52145B4
:100A100020600AE521152170C7152080C3E58215E5
:070A2000827096158380929D
:010A270022AC
:03000000020A8071
:0C0A8000787FE4F6D8FD7581370208F697
:10080000E709F608DFFA8046E709F208DFFA803EDA
:1008100088828C83E709F0A3DFFA8032E309F608C7
:10082000DFFA8078E309F208DFFA807088828C832F
:10083000E309F0A3DFFA806489828A83E0A3F608E3
:10084000DFFA805889828A83E0A3F208DFFA804CBD
:1008500080D280FA80C680D4806980F28033801094
:1008600080A680EA809A80A880DA80E280CA8033FD
:1008700089828A83ECFAE493A3C8C582C8CCC58375
:10088000CCF0A3C8C582C8CCC583CCDFE9DEE78045
:100890000D89828A83E493A3F608DFF9ECFAA9F0C4
:1008A000EDFB2289828A83ECFAE0A3C8C582C8CC1A
:1008B000C583CCF0A3C8C582C8CCC583CCDFEADE33
:1008C000E880DB89828A83E493A3F208DFF980CC95
:1008D00088F0EF60010E4E60C388F0ED2402B4048E
:1008E0000050B9F582EB2402B4040050AF23234535
:0608F00082239008507302
:00000001FF
